S00E0000752D626F6F742E73726563C0
S31587800000B80000EA14F09FE514F09FE514F09FE5A9
S3158780001014F09FE514F09FE514F09FE514F09FE5B3
S3158780002060008087C00080872001808780018087E5
S31587800030E001808740028087A0028087EFBEADDEA1
S31587800040DEC0AD0B00F020E300F020E300F020E374
S3158780005000F020E300F020E300F020E300F020E3C7
S3158780006028D01FE500E08DE500E04FE104E08DE5CF
S3158780007013D0A0E30DF069E10FE0A0E10EF0B0E1C7
S3158780008048D04DE2FF1F8DE850201FE50C0092E88F
S3158780009048008DE234508DE20E10A0E10F0085E88E
S315878000A00D00A0E1B00700FA00F020E300F020E31E
S315878000B000F020E300F020E300F020E300F020E367
S315878000C088D01FE500E08DE500E04FE104E08DE50F
S315878000D013D0A0E30DF069E10FE0A0E10EF0B0E167
S315878000E048D04DE2FF1F8DE8B0201FE50C0092E8CF
S315878000F048008DE234508DE20E10A0E10F0085E82E
S315878001000D00A0E19E0700FA00F020E300F020E3CF
S3158780011000F020E300F020E300F020E300F020E306
S31587800120E8D01FE500E08DE500E04FE104E08DE54E
S3158780013013D0A0E30DF069E10FE0A0E10EF0B0E106
S3158780014048D04DE2FF1F8DE810211FE50C0092E80D
S3158780015048008DE234508DE20E10A0E10F0085E8CD
S315878001600D00A0E18C0700FA00F020E300F020E381
S3158780017000F020E300F020E300F020E300F020E3A6
S3158780018048D11FE500E08DE500E04FE104E08DE58D
S3158780019013D0A0E30DF069E10FE0A0E10EF0B0E1A6
S315878001A048D04DE2FF1F8DE870211FE50C0092E84D
S315878001B048008DE234508DE20E10A0E10F0085E86D
S315878001C00D00A0E17A0700FA00F020E300F020E333
S315878001D000F020E300F020E300F020E300F020E346
S315878001E0A8D11FE500E08DE500E04FE104E08DE5CD
S315878001F013D0A0E30DF069E10FE0A0E10EF0B0E146
S3158780020048D04DE2FF1F8DE8D0211FE50C0092E88C
S3158780021048008DE234508DE20E10A0E10F0085E80C
S315878002200D00A0E1680700FA00F020E300F020E3E4
S3158780023000F020E300F020E300F020E300F020E3E5
S3158780024008D21FE500E08DE500E04FE104E08DE50B
S3158780025013D0A0E30DF069E10FE0A0E10EF0B0E1E5
S3158780026048D04DE2FF1F8DE830221FE50C0092E8CB
S3158780027048008DE234508DE20E10A0E10F0085E8AC
S315878002800D00A0E15C0700FA00F020E300F020E390
S3158780029000F020E300F020E300F020E300F020E385
S315878002A068D21FE500E08DE500E04FE104E08DE54B
S315878002B013D0A0E30DF069E10FE0A0E10EF0B0E185
S315878002C048D04DE2FF1F8DE890221FE50C0092E80B
S315878002D048008DE234508DE20E10A0E10F0085E84C
S315878002E00D00A0E13E0700FA120000EA00000FE148
S315878002F01F1000E21A0031E31F00C013130080131A
S31587800300C00080E300F029E1100F11EE020AC0E3F6
S31587800310100F01EE84009FE5100F0CEE060000EBB0
S315878003201D0000EBB00500EB150F07EE9A0F07EE61
S31587800330950F07EE1EFF2FE1EBFFFFEA0000A0E394
S31587800340170F08EE150F07EED50F07EE9A0F07EEF4
S31587800350950F07EE100F11EE020AC0E30700C0E380
S31587800360020080E3020B80E3010A80E3100F01EE2F
S31587800370300F1FEE400080E3300F0FEE0E50A0E166
S31587800380101F10EE213AA0E10F3003E20F4001E201
S315878003900322A0E1022084E105F0A0E1000000EAC3
S315878003A00000808710D09FE507D0CDE30090A0E33B
S315878003B000502DE95B0100FA0090BDE800FF9100AF
S315878003C02DE9F04530EE306F00210D464C006318DD
S315878003D026FA03F303F00703023B022B47D840EE46
S315878003E0104F30EE107FC7F3C90307F0070E03F16E
S315878003F0010A0EF1040EC7F34E374FF0FF3CD04605
S315878004005FEA58080CF1010201D09446F8E713EAAF
S315878004100A0F18BF0CF102020128C2F1200211D1FE
S3158780042003FA02FABC464AEA040A0CFA0EF848EA44
S315878004300A0807EE568F1CF1FF3CF6D213F1FF337D
S31587800440EED212E0022812D103FA02FABC464AEAB1
S31587800450040A0CFA0EF848EA0A0807EE5E8F1CF142
S31587800460FF3CF6D213F1FF33EED207EE9A5F013166
S315878004700729ABD1BDE8F085002307EE153F07EE48
S31587800480D53F07EE9A3F07EE953F70477047000046
S31587800490174A10B5136823F00103136008324FF4A7
S315878004A099731360536002F658621168114841F058
S315878004B0E04343F00F03006800F47074C02C09D1C1
S315878004C000F03F0007289EBF21F0804343F04053CA
S315878004D043F00F031360084A136843F003031360DE
S315878004E0A2F56862136843F00103136010BD00BFED
S315878004F00021A0000020A000802FA0007047000068
S31587800500024A136823F00103136070470021A00015
S3158780051008B50220FFF754FFBDE8084001F042BCCA
S3158780052008B50120FFF74CFFBDE8084001F034BCD1
S3158780053008B5FFF7ADFFFFF7F3FF002308EE173FF8
S3158780054008EE163F08EE153F07EE9A3F07EE953F72
S3158780055008BD30EE103F03F00703012204339A402B
S3158780056053420340994203D907EE3E3F1344F9E746
S31587800570002307EE9A3F01F01BBC08B5FFF7E9FF1A
S31587800580002308EE173F08EE163F08EE153F07EE65
S315878005909A3F07EE953F08BD0144FFF7DABF000013
S315878005A02DE9F04106460F4630EE105F05F00705C8
S315878005B02B1D01259D4005F1FF3810EA080F09D0CC
S315878005C0024612491248741E0DF048FC2C446B4231
S315878005D01C4000E0044617EA080F07D03A460B49C5
S315878005E00C480DF03BFC6B423B4000E03B469C420F
S315878005F003D207EE364F2C44F9E7002307EE9A3F5E
S3158780060039463046BDE8F04101F0E2BB963E8287A7
S31587800610D84982870B4A8287704708B501F019FCCB
S3158780062001F07AFDFFF728FF01F0AEFDFFF768FF3F
S31587800630FFF776FFFFF7F0FF002008BD38B51F4C20
S31587800640D4F84051B1F5357F0AD940F2AA539942F9
S3158780065008D81B4AA1F52F71A1FB0223DB0802E08C
S31587800660002300E01F23D4F8702122F07C520128D2
S31587800670C4F8702106D003D302281BD1092202E051
S31587800680002200E012221F21914001EA0500D04016
S31587800690181A0028B8BF404270B125EA01059340F1
S315878006A02B43064A00EB4000C2F840311DF0F4FC2C
S315878006B0002038BD6FF0150038BD00BF00800C0262
S315878006C01F85EB514FF42003586800F0030070476D
S315878006D0114AD2F88032C3F30740602813D0D2F804
S315878006E060324FF420025268C3F3074002F0030258
S315878006F0612803D1002A08BF662004E0632802D1D7
S31587800700012A08BF6720C3F30722DBB2013203EBD6
S31587800710021343EA0030704700800C020E494FF07F
S315878007207730086048600D4A1060506000230B64FC
S315878007304B648B64CB640B65136453649364D36413
S31587800740136502F580121060506013645364936456
S31587800750D3641365704700BF00C0070200C01702C5
S3158780076011EE103F10B523F0020301EE103FFFF71D
S31587800770D5FF3B4A536823F440335360394BD3F8CC
S3158780078050211106FBD508220020C3F8542100F09A
S315878007904DFB354B98420DD1314C00F051FA636948
S315878007A0324A23F4E053A0FB02010A0D013A43EA59
S315878007B0822363612E4A136843F0400313602D4A70
S315878007C000231381A2F5E61213814FF003721381FA
S315878007D002F510323032136843F080431360FFF797
S315878007E077FFC0F30730632805D1FFF771FFC0B263
S315878007F0202818D505E0FFF76BFFC0F307306728F9
S31587800800F3D01D4A136843F0010313601B4B1A68A4
S3158780081042F001021A601A68D207FCD4114B4FF452
S315878008207852C3F84821164A136823F00103136068
S31587800830FFF74EFFC0F30730632808D1FFF748FFDD
S31587800840C0B2202809D40F4A0F4B1A6005E0FFF7FC
S315878008503FFFC0F307306728F0D0002010BD00BF68
S3158780086000400C0200800C02007B9A17239A0802AC
S3158780087024400C020080280260C20D0200C00D024F
S3158780088000800D02010200800806BB0008B540F291
S3158780089097410120FFF7D2FE002008BD08B5FFF7F4
S315878008A03FFE01F042FC1E220649002001F0FAFB3A
S315878008B01E224FF400314FF41000BDE8084001F046
S315878008C0F1BB00BFFFFF0F000F4B68B9D3F8302607
S315878008D0100A4A700870D3F820361A0E8A701A0C56
S315878008E0CA701A0A0A710DE0D3F84026100ECA70AC
S315878008F00870100C4870100A8870D3F830361A0E34
S315878009001B0C0A714B71704700C01B02054B18641C
S315878009105A6C10B142F0805201E022F080525A64BC
S31587800920704700BF00800D0208B5FFF7D1FEC0F380
S315878009300730622837D0FFF7CBFEC0F307306428AD
S3158780094031D0194B9A69C2F34153C2F38142022B44
S3158780095009D0022A0ED0012B15D0012A13D0032B5A
S31587800960124B04D110E0012A1AD04FF08023032A34
S3158780097006D109E0012B13D0032B11D04FF08023AA
S3158780098043F4000300E0094B094A4FF08031C2F8EF
S31587800990F410C2F80431C2F8F810C2F8083108BDDD
S315878009A04FF08023F0E708BD00400C0280800080EE
S315878009B000800C02038803889BB243F00903038077
S315878009C070477047104A4FF0FF3108B51268C9F8EB
S315878009D058200E4AD9F858001BF00AFE011E04DA01
S315878009E00B480DF03BFA002008BD0023094AD9F849
S315878009F058001BF00CFD006800F17F435842584130
S31587800A00054B186008BD00BFCC2883873D4A8287FF
S31587800A104B4A8287784A828738228387054B1A6929
S31587800A2005490A600AB901221A6140F27E4100208F
S31587800A30FFF704BE00400C023C2283870B4A08B529
S31587800A40D2F8403143F4F80343F01F030228C2F8F3
S31587800A504031074A03D0012805D1064801E04FF087
S31587800A600370FFF7A7FF106808BD00BF00800C02E0
S31587800A703C22838700C00B02024B1B680BB9024A54
S31587800A80136170473C22838700400C02054B10B563
S31587800A901B685C6900F0D8FCC4F30121013120F022
S31587800AA07BFE10BD28F7828708B50C4B0C481A68E1
S31587800AB044F21003D358526A12F0400F08D103F0DC
S31587800AC003035B0014335843064BA0FB0301880856
S31587800AD002F03F01013120F05FFE08BD28F782874B
S31587800AE000366E01ABAAAAAA012837B50CD0022890
S31587800AF02ED1194B44F2F0021B689C5844F210029F
S31587800B009A5802F003020BE0032921D0124B1B6807
S31587800B1003F58242146844F230029A5802F0010241
S31587800B205200122502F114030C4A0020C9005A4349
S31587800B30A2FB052305FB003302A860E902233F2336
S31587800B408B401C4024FA01F11DF0D4F8009800E010
S31587800B50002003B030BD00BF28F7828700366E013C
S31587800B60144B10B51A68D369546A032819D8DFE8F5
S31587800B7000F002070C11C4F3C22403F480330DE01E
S31587800B80C4F3024403F4003308E0C4F3C24403F495
S31587800B90802303E0C4F3825403F4002313B1002136
S31587800BA001E0002402210120FFF79EFF611C20F0CF
S31587800BB0F3FD10BD28F78287054B1A68136F10B12E
S31587800BC043F4405301E023F440531367704700BFD3
S31587800BD028F78287064B1A68D2F8803010B143F09F
S31587800BE0030301E023F00303C2F88030704700BF18
S31587800BF028F78287032910B51CD8104C05D123681E
S31587800C004FF04072D3F8803006E04A0003230632DD
S31587800C1003FA02F223681B6F08B1134301E023EAC4
S31587800C200203226803294FF000000CBFC2F8803088
S31587800C30136710BD6FF0150010BD00BF28F7828738
S31587800C40204B10B51B68596911F0007415D09A69C5
S31587800C50C1F3C261C2F3013222B1022A1A4888BF20
S31587800C6000202BE044F21002985800F003004000E1
S31587800C7000F114031448584320E09869C0F38140F3
S31587800C80022810D0032813D001280AD044F23002D4
S31587800C90985800F00100400000F114030A48584331
S31587800CA00BE0022101E021460120FFF71DFF04E0CA
S31587800CB002210120FFF718FF40082146013120F0E5
S31587800CC06BFD10BD28F7828700366E010B4B10B5FA
S31587800CD01B685B695A06C3F3024408D51B0647BF60
S31587800CE00221012001210220FFF7FEFE01E0FFF7A6
S31587800CF0A7FF611C20F050FD10BD00BF28F78287B3
S31587800D0010B1012816D0704716490B685A6F22F49E
S31587800D1040425A67DB6923F0E05323F4607343F0DC
S31587800D20806343F480730A68D361536F43F4404387
S31587800D30536770470B490A68936F23F0405323F4B0
S31587800D4040639367D36A23F0FF6323F4F02343F4E6
S31587800D50B0230A68D362936F43F0405343F440636A
S31587800D609367704728F78287032910B53DD8204B2C
S31587800D70D3F8E03010B923F0030304E0890023F029
S31587800D800F0301F00C011943CB0401D400290FDB33
S31587800D9021F48051164B174AC3F8E010013A04D0E4
S31587800DA0D3F8E040002CF9DA02E06FF06D0010BDD1
S31587800DB010B941F4005101E041F4801121F480316A
S31587800DC00B4B0D4AC3F8E01013685B6B23F47F33B4
S31587800DD023F4007343F4043311684B634B6F43F0FA
S31587800DE0300312680020536710BD6FF0150010BD61
S31587800DF000800C02A186010028F78287FFF754BE00
S31587800E00094B1A69002A0EDB4FF480525A61802279
S31587800E10C3F878211A69002AFCDA4FF480329A61FE
S31587800E204FF400525A61704700800C0238B50146EC
S31587800E30102800F2B880DFE800F00918B21C202C51
S31587800E4030474B6AA7A9AEB0B2B62000594B1B680C
S31587800E50196903F58043186801F00701013100F0AD
S31587800E607F035548584340088BE0BDE83840FFF7F5
S31587800E70E7BEBDE83840FFF709BE4E4B1B68DC6985
S31587800E80630600F19580FFF701FE04F03F0101318B
S31587800E9077E0BDE83840FFF707BE464B1B689A6BFD
S31587800EA012F4802FC2F3C54101F1010101D0424876
S31587800EB067E044F2100240489B58C90003F0030359
S31587800EC05B00143358435CE0BDE83840FFF7FEBECD
S31587800ED0384B1B68D969C1F3C254C1F34171022962
S31587800EE011D003290ED0012902D0FFF7EFFE47E004
S31587800EF044F210029858304B00F0030040001430BB
S31587800F0058433DE000210120FFF7EEFD38E0294B6D
S31587800F101B6898695A6912F08064C2F3C2050DD03E
S31587800F2010F4801F02F00704234826D144F210026A
S31587800F309B5803F003035B00143310E0C0F34150E2
S31587800F40022810D0032813D001280AD044F2300211
S31587800F50985800F00100400000F114031648584362
S31587800F600BE0022101E021460120FFF7BDFD04E069
S31587800F7002210120FFF7B8FD4008691C20F00CFC90
S31587800F80611C20F009FC38BD002000E00120BDE807
S31587800F903840FFF7E5BD0220F9E70320F7E7BDE88C
S31587800FA0384000F051BA05480CF058FF002038BD0C
S31587800FB0014838BD28F7828700366E01784B82874D
S31587800FC00320FFF733BF000070B5544E544D554C00
S31587800FD0336803F58043186800F07F0068434008CC
S31587800FE0A0FB04015048890C0CF038FF326844F224
S31587800FF03003D05800F00100400014306843A0FBCE
S3158780100004014A48890C0CF029FF326844F21003A0
S31587801010D05800F00300400014306843A0FB0401D9
S315878010204348890C0CF01AFF326844F2E003D058A3
S3158780103000F00300431C03EB50033E485843A0FB54
S3158780104004013D483D4C890C0CF008FF3C480CF068
S3158780105005FF0320FFF7EAFEA0FB040139488909CB
S315878010600CF0FCFE0520FFF7E1FEA0FB0401364865
S3158780107089090CF0F3FE0220FFF7D8FEA0FB040156
S31587801080324889090CF0EAFE0720FFF7CFFEA0FBDE
S3158780109004012F4889090CF0E1FE0920FFF7C6FE77
S315878010A0A0FB04012B4889090CF0D8FE0A20FFF79C
S315878010B0BDFEA0FB0401284889090CF0CFFE0B20D2
S315878010C0FFF7B4FEA0FB0401244889090CF0C6FE0D
S315878010D00C20FFF7ABFEA0FB0401214889090CF0A1
S315878010E0BDFE0D20FFF7A2FEA0FB04011D488909DE
S315878010F00CF0B4FE0820FFF799FEA0FB04011A487E
S3158780110089090CF0ABFE0420FFF790FEA0FB040153
S31587801110164889090CF0A2FE002070BD28F78287C1
S3158780112000366E0183DE1B43914B8287A54B828770
S31587801130B94B828740787D01CD4B8287D34D6210AC
S31587801140DA578287E14B8287F54B8287094C82877C
S315878011501D4C8287314C8287454C8287594C828742
S315878011606D4C8287814C8287954C8287A94C8287F2
S31587801170044A054B116853F8203000200B431360CF
S31587801180704700BF00800D02FC20828708B5014624
S31587801190064B1A68064B53F8203006481A4214BF06
S315878011A0012200220CF05AFE002008BD00800D0225
S315878011B0EC208287CC4C82871346002110B510227B
S315878011C0044618681DF060FB022C06D0032C07D0D6
S315878011D0012C10D1094B986204E0084B186301E013
S315878011E0064B9863054A0020054B116853F82430CF
S315878011F00B43136010BD012010BD00BF00800D0218
S31587801200EC20828710B50446FFF75CFAA04234BF8C
S315878012100020012010BD0000044A054B53F820109A
S315878012200020136823EA01031360704700800D024C
S31587801230EC208287F0B500F07F4401F00F0501F43A
S31587801240F873220EC0F30B0404F103741E0942EA75
S3158780125005222B0E04F50034114D26600D4052EA87
S3158780126003044FEA552507D002F1037201F0F04750
S3158780127002F50032FB0E1360AB030FD4094A0023B5
S31587801280194010400B0B020B42EA015252EA0301C6
S315878012901EBF02F1037202F500321560F0BD00BFF2
S315878012A000FEFF0700F0FF0070B505460E46002456
S315878012B0B44205D0F5E802010134FFF7BBFFF7E7B3
S315878012C070BD0000513821289ABF024B53F8200001
S315878012D0014870475C1F8287838A8287F0B585B08D
S315878012E0FFF7F6F9434F0446FFF7F2F904F47F26B2
S315878012F004F00F0504F0F004C0F30730632815D196
S31587801300FFF7E6F9C0B2202816D4300BFFF7DAFF4D
S3158780131006460020FFF78AFD2209013AA0FB0701CE
S3158780132035488B0C314600932B4614E0FFF7D0F96E
S31587801330C0F307306728E3D0300BFFF7C3FF064635
S315878013400020FFF773FD2209A0FB07012B488B0C32
S31587801350314600932B460CF081FD02AA00210E2090
S3158780136010F074FD58B903A9029810F0FDFF20B9D3
S31587801370039923480CF072FD04E0224800E0224856
S315878013800CF06CFD214B1A6E32B1196E1A6FD3F839
S3158780139080301F480CF062FD1E4A93689360102B3D
S315878013A01D4A136017D005D8042B10D0082B10D070
S315878013B0012B03E0202B10D002D8112B11D112E0FC
S315878013C0402B0CD0B3F5803F0BD114490CE01449E0
S315878013D00AE0144908E0144906E0144904E01449F0
S315878013E002E0144900E0144914480CF037FD0020C8
S315878013F005B0F0BD83DE1B431D4D82874A4D8287AC
S31587801400764D82878F4D8287B84D828700C01C0232
S31587801410E64D828700800D022CF78287054D82876D
S31587801420DF4C8287E34C8287EC4C8287F14C8287BC
S31587801430FD4C82870F4D8287DB4C8287154E82874C
S3158780144014F0E2B811F058BE054B10B55C69FFF70A
S31587801450F7FBC4F38221013120F09EF910BD00BFCE
S3158780146000400C0208B5FFF7ADFABDE8084000F0EA
S31587801470FFBF10B50A204C46FFF7D8FCC4F8D000CA
S31587801480002010BDF7B5044690F8280011F072F851
S31587801490207C11F06FF8D4E90801FFF7CBFED4E9F9
S315878014A00201FFF7C7FE94F8280011F047F8054632
S315878014B0207C11F043F805EA00020346012A01D110
S315878014C0002574E0227C3F493F48019294F8282082
S315878014D000922A460CF0C2FC0121207C092511F056
S315878014E05FF84FF47A701CF0D7FD0121207C11F0CC
S315878014F057F832201CF0D0FD0021207C11F050F85F
S3158780150032201CF0C9FD013DEFD1012194F82800D6
S3158780151011F046F832201CF0BFFD0121207C11F0A6
S315878015203FF832201CF0B8FD2946207C11F038F828
S3158780153032201CF0B1FD294694F8280011F030F846
S3158780154032201CF0A9FD0121207C11F029F8322058
S315878015501CF0A2FD012194F8280011F021F8322091
S315878015601CF09AFD94F8280011F004F8207C11F07D
S3158780157001F8284600F056F9074694F8280010F0B7
S31587801580DDFF0546207C10F0D9FF05EA0003064675
S31587801590012B95D0384600F045F9C828EDD92A46DB
S315878015A0334608496FF00F0508480CF057FCD4E995
S315878015B00601FFF73FFED4E90001FFF73BFE284689
S315878015C003B0F0BDFD3E8287694E8287944E8287BF
S315878015D003282DE9F041064686B00F4690461D467C
S315878015E033D802461B4903A81DF049FA03A995F803
S315878015F0280010F0B7FF50BB3246174903A81DF065
S315878016003EFA03A9287C10F0ADFF0446B8B9314667
S315878016100120FFF7EFFA044670B92846FFF732FFB5
S31587801620044648B90D484246009539460C4B50F8D2
S31587801630260011F0A3FA06E0287C10F099FF95F82A
S31587801640280010F095FF204601E06FF0150006B060
S31587801650BDE8F081BC4E8287C84E8287F025828717
S3158780166085148087374B4FF4004210B500211A6066
S315878016706422013A1960FCD11B6823F4E074FFF772
S3158780168027F8C0F30730632806D1FFF721F8C0B261
S31587801690103800281EDC05E0FFF71AF8C0F30730FC
S315878016A06728F2D0FFF714F8C0F30730612811D086
S315878016B0FFF70EF8C0F3073066280BD0FFF708F8D8
S315878016C0C0F30730622805D0FFF702F8C0F30730EA
S315878016D064282BD1FEF7FCFFC0F30730612805D03D
S315878016E0FEF7F6FFC0F30730662808D1154A44F41B
S315878016F0A8634FF4E04143F00103516018E0FEF799
S31587801700E7FFC0F307306228F0D0FEF7E1FFC0F32A
S3158780171007307228EAD0FEF7DBFFC0F307306428EC
S31587801720E4D044F4A07343F0010301E044F041031D
S31587801730044A00201360526AC9F8DC20C9F8D800A9
S3158780174010BD00BF008009020B4B596AD9F8DC208F
S3158780175091423EBFD9F8D8200132C9F8D8200022D5
S31587801760C9F8DC10D9F8D810D9F8DC000B4642EADC
S31587801770000210461946704700800902D3B5FFF7E5
S31587801780E3FFCDE90001FEF7A3FFC0F307306328A7
S3158780179006D1FEF79DFFC0B2103800283BDC05E0F6
S315878017A0FEF796FFC0F307306728F2D0FEF790FFE3
S315878017B0C0F3073061282ED0FEF78AFFC0F3073043
S315878017C0662828D0FEF784FFC0F30730622822D0A8
S315878017D0FEF77EFFC0F3073064281CD00420FFF70E
S315878017E025FB0146009A4FF47A70019C0027A2FB5D
S315878017F0002300FB0434264656EA07002346CDE9B4
S31587801800002304D110461FF0C7FF009005E0684685
S315878018101CF070FA01E00249E4E7009802B0D0BD77
S31587801820C0C62D0010B50446FFF7A8FF001B10BD64
S3158780183073B5002300900193FEF74AFFC0F3073004
S31587801840632806D1FEF744FFC0B2103800284BDCE8
S3158780185005E0FEF73DFFC0F307306728F2D0FEF735
S3158780186037FFC0F3073061283ED0FEF731FFC0F3DC
S315878018700730662838D0FEF72BFFC0F307306228FB
S3158780188032D0FEF725FFC0F3073064282CD004209A
S31587801890FFF7CCFA009A0026019B3146A2FB0045CA
S315878018A0134A121900FB03554FF000036B41CDE9AC
S315878018B000231846014306D10E4BA2FB03239B0CBC
S315878018C08DE8480003E00C4968461CF013FA009EB1
S315878018D0FFF73AFF841941F10005FFF735FFA942E3
S315878018E008BFA042F9D301E00448D3E702B070BDB0
S315878018F03F420F0083DE1B4340420F00C0C62D0048
S3158780190008B5FEF7E5FEC0F30730632806D1FEF7F4
S31587801910DFFEC0B21038002823DC05E0FEF7D8FE4C
S31587801920C0F307306728F2D0FEF7D2FEC0F30730C0
S31587801930612816D0FEF7CCFEC0F30730662810D014
S31587801940FEF7C6FEC0F3073062280AD0FEF7C0FED0
S31587801950C0F30730642804D00420BDE80840FFF729
S3158780196065BA014808BD00BFC0C62D00012A2DE98A
S31587801970F04D1746984602DC4FF0FF352EE0D3F8B8
S3158780198004A00026DFF860B05BF826404CB90136A4
S31587801990022EF1D0F8E751461CF056FA054620B15B
S315878019A0083420680028F6D1F1E7032F14D10D4932
S315878019B0D8F808001CF048FA0028DDD12E466068E2
S315878019C0FEF7A4FF56B1636843B100231A461946CA
S315878019D0184600F01FFB01E00126F0E72846BDE8A0
S315878019E0F08D00BFDF4E82874022838790D09FE528
S315878019F007D0CDE30D20A0E1F8D04DE207D0CDE327
S31587801A000D90A0E10D10A0E10000A0E3020051E156
S31587801A100000813504108132FBFFFF3A01DB4DE2FE
S31587801A20BCD089E51C0A00FA3CD099E507D0CDE37E
S31587801A30009099E5F89049E20CE08FE2400099E5BD
S31587801A4000E08EE02C0099E5140000EA100000EB98
S31587801A5034FAFFEB2C009FE52C109FE50020A0E34E
S31587801A60010050E10020803504008032FBFFFF3A79
S31587801A70DE0900FBDE0900FA0900A0E12C1099E552
S31587801A8008F09FE500FF910038228387CCF287870D
S31587801A90D14380872C0099E5100F0CEE1EFF2FE12E
S31587801AA04C109FE5014050E01000000A44209FE5D6
S31587801AB0000CB1E8000CA0E8020051E1FBFFFF3A79
S31587801AC034209FE534309FE50300B2E8FF1001E2BA
S31587801AD0170051E30300001A040080E0001090E5A8
S31587801AE0041081E0001080E5030052E1F5FFFF3A9C
S31587801AF01EFF2FE1000080873822838738228387DD
S31587801B00E89883871FB50023D9F800200393916CC3
S31587801B10D26C8DE80A0001230292694602AA04F0F4
S31587801B2049FF05B05DF804FBD9F8003073B50546E3
S31587801B301B6C01F40074066E144801930BF042FF08
S31587801B4038B1102101AA1CF0D7FE019910480CF0F4
S31587801B5085F90F2000F064FF0E4B0F490F48002C44
S31587801B6008BF19460CF07AF9A12000F059FFFEF7D5
S31587801B7054FD2B6F0BB1EA6E02E0D9F800305A6CB0
S31587801B8014B901992046B04702B070BD044F828749
S31587801B900B4F82878D858287ED4E8287304F8287EE
S31587801BA010B46946D9F80040A1F58051D9F800204C
S31587801BB0A36CD26C10BC1A44521A1BF0C9B97047F1
S31587801BC0F8B5064634480BF0FDFE336F4BB1304689
S31587801BD00DF03BFB00285DD030480CF03FF91CF0B8
S31587801BE0C9F8D9F800102E4C4D6C052185E812006E
S31587801BF02C4CAB60EB602B6105F114032360D9F81D
S31587801C000030B8B1074610F8013B202BFAD08BB14C
S31587801C10254B3846AB611CF03FF939460D30800835
S31587801C206861206808301CF0D7F823681A6803EB48
S31587801C308203236000F0C5FD23681C4A032183E85D
S31587801C4006001B4998604D46D9F800200420196103
S31587801C50D860916C9961D26C5A6103F11C02716E5E
S31587801C60226071B1B26E62B12D68521A114D2C33D2
S31587801C7043F8100C43F8081C43F80C5C43F8042C93
S31587801C8023600848FFF79BFF00224B461B68236823
S31587801C905A601A60F8BD00BF494F8287524F828744
S31587801CA001004154482283870900415407004154E3
S31587801CB00200415405004254F8B510F0C005044629
S31587801CC01E4617D110F4807703D01846FFF778FF22
S31587801CD012E010F4C06505D001461846FFF724FF49
S31587801CE03D4609E01846FFF76BFF21463046FFF7EA
S31587801CF01BFF01E04FF0FF352846F8BD10B50A4B2C
S31587801D00446A9C4204D009480CF096F8012010BD9D
S31587801D10836A0B60C36A13600A68014604480CF0BD
S31587801D209DF8002010BD00BF18286F01724F8287EB
S31587801D308F4F828710B50446C06E58B107491AF00F
S31587801D408DFB002806DAE06EFFF7DCFE10B10448CB
S31587801D500CF072F8BDE81040FEF75FBCBA4F8287F9
S31587801D60C24F8287036EC06E18470000084B1B6878
S31587801D7013F4803F14BF4FF480334FF48073013B55
S31587801D8003600368002BFCD1024A1360704700BF4B
S31587801D900421A0003027A0000148FFF7E7BF00BFD6
S31587801DA07C27A0000148FFF7E1BF00BFFC27A00082
S31587801DB0054B20F01F00884202D218602030FAE750
S31587801DC0024B00221A607047F027A0003027A000B8
S31587801DD0C20638B504460D4607D002460C490D48DB
S31587801DE01F340CF03BF824F01F04EB0606D02A46F6
S31587801DF00749094825F01F050CF030F8074BA5429F
S31587801E0002D91C602034FAE7054B00221A6038BD58
S31587801E10AC3E8287D84982870B4A82877027A00003
S31587801E203027A000D9F83C200020C9F83820D9F877
S31587801E303C20103AC9F83C2070470000034A0020AE
S31587801E40D9F8383008331360704700BF40008087E1
S31587801E50704700207047000008B501481CF01CFEBB
S31587801E60E44F828770B5A2B004468022334902A8A0
S31587801E701CF07AF8A26BE16B3148256C0BF0EEFF8C
S31587801E8005F07046D9F80420D2070AD5D9F84010CC
S31587801E90A06BD9F84020E36B821A2A48591A0BF02F
S31587801EA0DDFFE36A226B616B27480BF0D7FF236AD6
S31587801EB0626AA16A25480BF0D1FF2369244800937B
S31587801EC06369A269E1690BF0C9FF2368214800939A
S31587801ED0E1686368A2680BF0C1FF002EB4BF4E210C
S31587801EE06E2115F0804F14BF5A227A2215F0005F33
S31587801EF014BF4323632315F0805F14BF5620762053
S31587801F00009015480BF0AAFF236C144A22AC14481C
S31587801F1013F0800F14BF1146014613F0400F03F06C
S31587801F201F0308BF02460F4804EB83030E4C0094B9
S31587801F3053F8803C0BF092FF22B070BDD01E82870B
S31587801F40FD4F8287F74F82871F50828743508287CC
S31587801F506750828797508287C7508287266682870F
S31587801F6029EA8287D75082878D85828708B50446F6
S31587801F7003480BF073FF2046FFF774FFFFF76CFF6C
S31587801F80F650828708B5044603480BF067FF2046DC
S31587801F90FFF768FFFFF760FF0D51828708B5044614
S31587801FA003480BF05BFF2046FFF75CFFFFF754FF84
S31587801FB02151828708B5044603480BF04FFF204698
S31587801FC0FFF750FFFFF748FF3151828708B50446F0
S31587801FD003480BF043FF2046FFF744FFFFF73CFF9C
S31587801FE03D51828708B5044603480BF037FF204664
S31587801FF0FFF738FFFFF730FF4751828708B50446DA
S3158780200003480BF02BFF2046FFF72CFFFFF724FFB3
S315878020104C51828708B508480BF00EFF4CF250303A
S315878020201CF03AF8FFF715FFFEF7CBFC002010F07F
S315878020308FF9002008BD00BF4A52828782B000236D
S315878020400193019B632B03DC0046019B0133F7E7F2
S3158780205002B0704738B511EE102F0546FFF7EEFFB1
S31587802060042802D1530712D5052511EE104FFFF7A5
S31587802070E5FF052D07D1FEF74BFA24F0040301EE21
S31587802080103FFEF745FA24EA050401EE104F38BD66
S315878020907047D9F8F03041EA005141F4406143F8FE
S315878020A020107047F8B500F57F2303F6FF73050D7B
S315878020B01944D9F8F0702E460C0DA64205D23046C3
S315878020C01146FFF7E6FF0136F7E707EB840107EB53
S315878020D08500BDE8F840FEF750BA10B5D9F80040BC
S315878020E004EBC004A26C120DE36CA16C1B0D03EB91
S315878020F01153934205D910461E21FFF7CAFF013235
S31587802100F2E710BD08B511EE102FFFF797FF42F45F
S31587802110805201EE102F08BD4FF48050FFF79ABF8B
S3158780212011EE100FC0F30030704710B511EE102FE7
S3158780213012F001041FD1FEF7FBF9224610461221C1
S31587802140FFF7A7FF0132B2F5805FF7D10020FFF74F
S31587802150C4FFD9F8F03002EE103F4FF0FF3303EE1D
S31587802160103FFFF795FF11EE102FFFF767FF42F0BD
S31587802170010201EE102F11EE102FFFF75FFF42F05D
S31587802180040201EE102F10BD0420FFF763BF11EE06
S31587802190100FC0F38000704708B500F019FC01382E
S315878021A001288CBF4FF080404FF00050C9F830002F
S315878021B0002008BD73B506460C212348FFF774F8BF
S315878021C001212248FFF770F80021212010F0E8F9D5
S315878021D04FF4FF701BF060FF0121212010F094F9E6
S315878021E06E201BF059FF1A4AD2F8E03043F4001369
S315878021F00021C2F8E0300846FEF7B6FD0021154873
S3158780220013F09CF90546D8B10622012113F016FDF5
S31587802210044690B1416B10480BF020FE00942B4604
S315878022200C4A0021304613F05BF848B10B490C48BD
S315878022300BF014FE20460CF02FF828460CF02CF86D
S31587802240002002B070BD00BF101D8287F01D828777
S3158780225000800C020080180276528287873E8287AA
S315878022608752828708B543689B6903B19847002060
S3158780227008BD000013B5002013F0C2FF002840F088
S31587802280D8806D4813F0F2FD044613F0A7FF002827
S3158780229040F0CF8001466A46204613F04FFF01AA59
S315878022A00321204613F04AFF9DE8060063480BF01A
S315878022B0D5FD6A466921204613F040FF009A692139
S315878022C0204642F00102009213F0EAFE0C22232177
S315878022D0204613F0E5FE08B15948A6E00C22312145
S315878022E0204613F0DDFE08B156489EE00C22382141
S315878022F0204613F0D5FE08B1534896E00C223F213D
S31587802300204613F0CDFE08B150488EE06A462121DB
S31587802310204613F013FF009A2121204622F03F02A0
S3158780232042F00B02009213F0BBFE08B148487CE06E
S315878023306A462F21204613F001FF009A2F212046D7
S3158780234022F03F0242F00B02009213F0A9FE08B1F9
S3158780235040486AE06A462421204613F0EFFE009AB9
S315878023602421204622F0C00242F04002009213F0D8
S3158780237097FE08B1384858E06A463221204613F0DE
S31587802380DDFE009A3221204622F0C00242F04002CA
S31587802390009213F085FE08B1304846E06A462021D0
S315878023A0204613F0CBFE009A2021204622F03F025A
S315878023B042F01A02009213F073FE08B1284834E07F
S315878023C06A462E21204613F0B9FE009A2E21204692
S315878023D022F03F0242F01A02009213F061FE08B1A2
S315878023E0204822E06A463C21204613F0A7FE009AC1
S315878023F03C21204622F00F0242F00902009213F018
S315878024004FFE08B1184810E06A466D21204613F0C2
S3158780241095FE009A6D21204622F00F0242F01E0219
S31587802420009213F03DFE20B110480BF017FD4FF058
S31587802430FF3002B010BD00BF9B528287A55282872C
S31587802440CF528287EA528287055382871F53828734
S3158780245039538287545382876F5382878A53828779
S31587802460A5538287C0538287DB538287F5538287BA
S3158780247037B5002855D0FEF7D1FA2B4813F0F6FCEE
S3158780248001AA2021044613F059FE019A202120466D
S3158780249022F03F0242F01A02019213F001FE08B140
S315878024A022483CE001AA2E21204613F047FE019A56
S315878024B02E21204622F03F0242F01A02019213F023
S315878024C0EFFD08B11A482AE00120FEF7B7FA01AA7C
S315878024D020210028204614BF0F25132513F02EFEB2
S315878024E0019A2021204622F03F022A43019213F047
S315878024F0D7FD0028D4D101AA2E21204613F01EFEAF
S31587802500019A2E21204622F03F0242F01302019241
S3158780251013F0C6FD0028D5D1FEF7AEFA05480BF035
S315878025209DFC03B030BD00BF9B528287A5538287AF
S31587802530C053828710548287012801D015F00ABE3E
S31587802540002070470128DFBF00F5060000F5905010
S3158780255080000368DDBF43F40073036000206FF05B
S315878025601500704708B502210248FEF79DFE0020B8
S3158780257008BD00BF281E8287054B1868C0F3811364
S31587802580012B06BFC0F3C12000F1FF3000207047C2
S3158780259004800D0208B503691A68064B9A4206D1EC
S315878025A0A2200FF0CBFFB0FA80F0400908BD00204B
S315878025B008BD00BF0040190270B508210646164837
S315878025C0FEF772FE0B20FEF731FC144D6860A22061
S315878025D00FF0D0FF0121A1200FF0E2FF2946304678
S315878025E010F014FD044680B906210D48FEF75CFE7F
S315878025F00C20FEF71BFC05F12C012863304610F072
S3158780260005FD044628B1012100E0002105480BF02D
S3158780261025FC204670BD00BF501E828790F7828733
S31587802620901E82872E54828708B506480BF0CAF992
S3158780263030B105491BF008FCB0FA80F0400908BD27
S3158780264008BD00BF585482876654828710B590B07C
S31587802650FFF792FF0446FFF7E7FFA8B121460B48AD
S315878026600BF082F8621C0A4908A81CF008FA08A9A8
S3158780267008480BF05DF80849224668461CF0FFF942
S31587802680002168460DF07CF810B010BD6A548287A9
S31587802690715482878D5482879554828708B506219F
S315878026A00348FEF701FE0120FEF72AFB002008BDBE
S315878026B0F81D828700000000D9F80030364A10B5A9
S315878026C033A1D1E900015A64FEF7B4FD012133486D
S315878026D0FEF7EAFD01217020314C0FF061FF0F2153
S315878026E03048FEF7E1FD2D200FF044FF6E200FF076
S315878026F041FF7A200FF03EFF24200FF03BFF6D20AD
S315878027000FF038FF60200FF035FF002166200FF02D
S3158780271047FF0121A0200FF043FF002197200FF06C
S315878027203FFF002190200FF03BFF002175200FF09F
S3158780273037FF002176200FF033FF002172200FF0BC
S315878027402FFF002173200FF02BFF2146164B7F2208
S315878027500020FEF73DFF154B7F2221460220FEF79C
S3158780276037FF03211248FEF79FFDFFF797FF022168
S315878027701048FEF799FD00212C200FF011FF0021CC
S3158780278031200FF00DFF002010BD00BFAFF3008012
S31587802790480039005060610000010080E81D82870B
S315878027A0A0860100701D828730F7828760F78287CF
S315878027B0381E8287C01E828708B5FFF747FF0020AD
S315878027C008BDFDF785BF000008B500F001F901282F
S315878027D001D108480AE0022801D1074806E0032884
S315878027E001D1064802E0042802D105480BF024FB74
S315878027F0002008BDA0548287B7548287E454828795
S31587802800FE5482870938C3B2172B9DBF0248D840AA
S3158780281000F001000020704713008000014610B544
S315878028200C460A7801311046FFF7ECFF0028F7D16E
S315878028308AB120461BF030FB013822189442114614
S3158780284002D300234B7006E00878013AFFF7DAFF58
S315878028500028F3D1F5E7204610BD0000F0B59DB07E
S3158780286000F0B6F80138032876D8DFE800F008024A
S3158780287004063B4C04E03B4C02E03B4C00E03B4C7F
S315878028803B480BF09FF808B93A4D16E0FFF7C6FF2D
S31587802890394905461BF0D8FA60B1384928461BF076
S315878028A0D3FA48B1364928461BF0CEFA0028EBD1B1
S315878028B0344D02E0344D00E0344D35480BF082F8D4
S315878028C008B9344E20E0FFF7A9FF334906461BF047
S315878028D0BBFA60B92B4931480AF02AFF2949304823
S315878028E00AF026FF2F480BF0B9FA264E0CE02E49C0
S315878028F030461BF0A9FA0028ECD0214930461BF0D8
S31587802900A3FA0028E6D0DCE728480BF05BF808B9FD
S31587802910274A12E0FFF782FF264907461BF094FA7B
S3158780292050B1254938461BF08FFA28B12349384656
S315878029301BF08AFA0028EBD1214A234621498DE864
S31587802940600003A81CF09BF803A91F480BF086FA42
S3158780295003A91E480AF0ECFE00201DB0F0BD00BF1B
S315878029602A558287425582875B5582871455828707
S315878029709955828770558287775582877E558287D4
S31587802980A65582878D858287765582877D5582876C
S31587802990AF55828785558287BA558287C055828704
S315878029A0CA558287D1558287FA558287FD55828710
S315878029B0895582870C56828766548287B2558287E5
S315878029C08D558287115682871F5682873056828792
S315878029D010B502211148FEF767FC6D200FF0CAFDFE
S315878029E060200FF0C7FD6D200FF0A8FD044660209C
S315878029F00FF0A4FD54EA00030CD024B9012814BF34
S31587802A000420022010BD012C06D1012814BF042082
S31587802A10032010BD012010BD042010BD001D8287B4
S31587802A20704708B5A220FFF7FBFF0CF0F9FE01F08F
S31587802A3063FA01F0ABFABDE808400CF0EDBE70474B
S31587802A400720704710B578204C460BF0D9FC39495A
S31587802A506066D9F8642038481160D9F86420374988
S31587802A605160D9F8642036499160D9F86420354910
S31587802A70D160D9F8642034491161D9F86420334903
S31587802A805161D9F86410324A8A61D9F86410CA616B
S31587802A90D9F864100862D9F864102E484862D9F844
S31587802AA064102D488862D9F864102C48C862D9F892
S31587802AB064102B480863D9F864102A484863D9F884
S31587802AC0641029488863D9F864102848C863D9F878
S31587802AD0641027480864D9F8641026484864D9F86A
S31587802AE0641025488864D9F864102448C864D9F85E
S31587802AF0641023480865D9F8641022484865D9F850
S31587802B0064108A65D9F86410CA65D9F864100A662C
S31587802B10D9F864104A66D9F864108A66D9F8641039
S31587802B20CA66D9F864201849D9F864301167174A74
S31587802B305A6710BD412A808701E48087A9DE80870E
S31587802B40DDDE808715DE808739DE80875DDE80875C
S31587802B503F2A808799E2808799E0818725188087B1
S31587802B60F7DE808715208087C5D9808731D780878C
S31587802B7089E88187F9E881873BE9818749DE81878B
S31587802B80692781873527818755E981872DEA8187D7
S31587802B902DE9F041069E079D012E28DDCB0701D5BD
S31587802BA0022E24D01022002128681BF06DFE102269
S31587802BB00021074668681BF067FE4FF480333946E5
S31587802BC00246044600201BF093F83A19013A3946A3
S31587802BD00346804609480BF041F9022E0BD0102216
S31587802BE00021A8681BF050FEC0F8008003E04FF0F4
S31587802BF0FF30BDE8F0810020BDE8F081A25682874C
S31587802C00026800234360036102B1137070470368CB
S31587802C105A1C02601878002808BF4FF0FF3070472B
S31587802C200368187870470000034A013810F8013F17
S31587802C300BB1D154FAE770478022838701480BF01E
S31587802C400DB900BFCD5682872DE9FF4D04460026F4
S31587802C504FF0180B0191002C3DD00026019B3746FB
S31587802C600333029323689F4229DA0BFB07F8D4F84C
S31587802C7004A00AEB08055AF80810C1B10021A86894
S31587802C80814208DA2868039150F821000BF004FB0B
S31587802C9003990131F3E75AF808000BF0FDFA686863
S31587802CA00BF0FAFA0021A9604AF8081005E0E8686F
S31587802CB018B10299FFF7C8FF06460137D2E76068E1
S31587802CC00BF0EAFAA568002320466360A3602C464A
S31587802CD00BF0E2FABFE7304604B0BDE8F08D00001E
S31587802CE008B50BF08DFB18B902480BF0B7F8FEE7ED
S31587802CF008BD00BFDB56828708B51420FFF7F0FF33
S31587802D000022026042608260C260026108BD000064
S31587802D1008B50BF0D5FD18B902480BF09FF8FEE78A
S31587802D2008BD00BFDB568287036870B5064685680F
S31587802D3033B1DA680AB91B68ABB12B6801332B606C
S31587802D4029681824686801FB0441FFF7E1FF2B682F
S31587802D5000225C430319686002515A60DA601A61FF
S31587802D60B26933605A61002070BD38B504460D4616
S31587802D70FFF7DAFFA368E268DD6000251A61FFF74F
S31587802D80BBFFA3689860A06020462560FFF7CCFFCD
S31587802D90284638BD43682DE9F04D07460C4623B94A
S31587802DA0036913B90020BDE8F08D2568EB6813B1F8
S31587802DB0FFF744FF95E02E6816B13B6801207DE0DA
S31587802DC0A3699B07F9D5DFF88CB156F80B100BEB07
S31587802DD0060A38681BF038F88046002862D1DAF808
S31587802DE0083018052AD51C20FFF77AFFE3680C2B55
S31587802DF0834601D0062B05D1FFF720FF58460BF077
S31587802E004BFA25E0264605460FCE0FC596E807007E
S31587802E1085E80700C4F80880C4F80080FFF76CFF50
S31587802E20C4F80C80C4F81480C4F810806060A060F1
S31587802E302046FFF779FFC4F814B00CE0E3682BB11E
S31587802E402369DAF804201341D90704D4FFF7F6FEFD
S31587802E500D23E3601CE0DAF80430E360DAF80830A3
S31587802E60DA07236114D501212046FFF77EFFD4F840
S31587802E7014E062682546DEF800307646DA600FCE43
S31587802E800FC596E8070085E8070070460BF004FAB9
S31587802E903846FFF7B5FEE068A0F10D0358425841E2
S31587802EA0BDE8F08D0C36842E8FD186E71A783AB1B5
S31587802EB05C2A00F1010008BF01330133002BF5D16D
S31587802EC00BF09EFA804660B1286800B9A860AE6824
S31587802ED0731C0236AB60B60031460BF0F1FC286076
S31587802EE010B90120BDE8F08D314668680BF0E8FCA3
S31587802EF068600028F5D02A68A6F108033969043EF8
S31587802F0042F803806A68D15000232A6893516A6899
S31587802F1093513B6893B90025384688F80050FFF768
S31587802F206FFEE368062B7FF43DAF21463846FFF771
S31587802F3031FF01212046FFF718FF33E71A78002AE9
S31587802F40E9D05C2A08BF013313F8012B08F8012BD7
S31587802F50E0E700BFE8F78287012A2DE9F34D174618
S31587802F609B4602D00024012630E01F4B1F4D1C68EC
S31587802F70002C34D094E8060028460AF06FFF0AF0C2
S31587802F80CBFF20B11A480AF057FF012028E0246931
S31587802F90EEE7414628681AF057FF38B9019095E8D9
S31587802FA0060012480AF05AFF019B9A460AF0B4FF38
S31587802FB00028E7D12D69002DEBD1BAF1000F04D017
S31587802FC041460C480AF04AFF01340136BE4206DA8A
S31587802FD0054B4FF0FF3A5BF826801D68EBE7204666
S31587802FE002B0BDE8F08D00BF88278387F956828730
S31587802FF0005782870C57828788B1094A0378D35CC2
S3158780300013F003030AD010F8013FD15C4907FAD140
S315878030105F2BF8D03D3B58425841704718467047DA
S315878030206140828703682DE9F04D044613B11A788B
S31587803030002A7CD1424E434F206800286DD10123D8
S315878030406360A3684FF0000A3F4D012B0CBF38465B
S3158780305030460CF07DFFA8460130284601BF3B4AA3
S315878030600023636013601AF017FF0A232B542844C2
S3158780307080F801A00AF0AEFF10B1344BC3F800A0E8
S315878030800AF0AEFFD4F808B0314B4FF0000ABBF197
S31587803090010FC3F800A016D12A782C4D0A2A06D1AB
S315878030A02A685AB928492B481AF096FE08E0264995
S315878030B028481AF091FEC5F800B001E0C3F800B041
S315878030C0244B2360B8E72B780A2B1DD0214D2846C1
S315878030D01AF0E2FE83461C481AF0DEFE5844B0F5A5
S315878030E0806F0AD228461AF0D7FE174920232844AC
S315878030F000F8013C1AF070FE06E00A232B70134B0A
S3158780310085F801A0C3F800A062681AB9114B0A2115
S315878031105A701970C4F800808EE71AF0BDFE0028B1
S315878031208DD00223A360236833B1187828B15A1CBF
S3158780313022601878BDE8F08D1846BDE8F08D00BF0F
S315878031409DE58287AC7F8287D0AF84874C228387B1
S31587803150802383878423838770B50E464368044696
S3158780316081688B420CDB056801F164036531836076
S3158780317028460BF0A5FB206020B928460BF08CF8F3
S31587803180206840B16368C65400206368226801332B
S315878031906360D05470BD012070BD000038B5044689
S315878031A00D462AB929462046BDE83840FFF7D4BF61
S315878031B005481AF065FE0028F4D05C212046FFF783
S315878031C0CBFF0028EED038BD2857828703681878CA
S315878031D07047000038B5054608B9002038BD0378A2
S315878031E0242B0DD1437800200C4C3F2B207014D193
S315878031F00B4B20460B491A681BF041FC204638BD8D
S31587803200094B1C68002CE8D0294620681AF01CFEDA
S3158780321008B9606838BD2469F4E738BD502283874A
S315878032207C2283872D578287882783872DE9F04D50
S31587803230884603783C4AD35C9B0722D01AF050FE97
S3158780324007460AF0BFFB044630B138480AF006FEC7
S3158780325038460BF021F814E03D2138461AF010FEE7
S31587803260334B1D68002808BF012000F1010A0470CE
S315878032701C4655B1394628681AF0E6FD28B32D696C
S31587803280F7E74FF0FF30BDE8F08D14200BF0B8F8E4
S31587803290064628B338461AF023FE306018B930467A
S315878032A00AF0FAFF1CE05046D4F800B01AF018FEF0
S315878032B03561C6F80880F5607060DBF810400CB120
S315878032C0A346FAE7CBF810600CE0514668681AF097
S315878032D0BBFD68B1EB689BB1394616480AF0BEFDDF
S315878032E04FF0FF3438460AF0D7FF2046BDE8F08D89
S315878032F0B8F1000F15DDAC689CB9C5F80880F1E791
S31587803300B8F1000F02DCAB68012B01DD0123AB60CE
S31587803310686800240AF0C0FF50461AF0E1FD6860AD
S31587803320E0E70124DEE700BF6140828730578287E6
S3158780333088278387735782872DE9FF4D0024054623
S31587803340A04626460291032128461AF099FD07460C
S31587803350002800F0B080BD420ED0A7EB050A204634
S3158780336006EB0A084146FFF7D3FC524629460446B0
S3158780337030441AF039FD4646013703214FF000085D
S3158780338038461AF07DFD019080F80080002F00F086
S315878033908A803A2138461AF073FD824618B9002208
S315878033A09046154612E0437880F800802D2B02D10F
S315878033B0851C42460AE03D2B04D14246851C4FF048
S315878033C0010803E02B2BEAD1851C0122384603921C
S315878033D00AF0F8FA039A834648B93846FFF7FAFE21
S315878033E0039A834618B9B8F1000F28D006E0584665
S315878033F003921AF051FD0028F5D019E038461AF065
S315878034004BFD804628461AF047FD404402300AF035
S31587803410F7FF804640B137492B463A461BF02FFB4C
S3158780342000214046FFF702FF40460AF035FF06E057
S31587803430039A42B158461AF02FFD0BEB0005BAF175
S31587803440000F04D106E05D46BAF1000F03D03A2318
S315878034508AF800303DB3029B284623B11AF01CFDBB
S31587803460B71C074402E01AF017FD37182046791CE7
S31587803470FFF74EFC029B044683B106F10108294675
S3158780348080444FF0040A40461AF0A6FC04F806A04A
S3158780349028461AF001FD08F800A003E02946304443
S315878034A01AF09AFC3E46019D4FF003034FF00108C0
S315878034B005F8013B47E7B8F1000F14D028461AF084
S315878034C0EBFC711C01442046FFF722FC2946044603
S315878034D030441AF081FC20260A2120461AF0D0FC37
S315878034E008B10670F8E7002C14BF2046284604B03A
S315878034F0BDE8F08D895782872DE9F0410E4686B0E3
S315878035000446002836D00378002B35D00A21DFF889
S3158780351078801AF0B5FC1A4F08B14378F3B1204604
S315878035201AF0BAFC0230FFF7DBFB214605461AF014
S3158780353053FC144928461AF063FC314601A80123B7
S31587803540CDF81480029303930497019500F088FA47
S31587803550044628460AF0A0FE20460EE0314601A89A
S315878035600123CDF81480049702930393019400F086
S3158780357077FA02E0012000E0184606B0BDE8F081C0
S315878035800F2C8087DA578287CD3180872DE9F04D5A
S315878035908EB006460346E3B11A699B680C2A01D02A
S315878035A0062AF8D12BB9FFF749FB9D4B00221A6073
S315878035B043E20C2A07D11A690C2AECD15A68126819
S315878035C0002AE8D0EFE7062AE5D11A690C2AE2D0E5
S315878035D0E9E74FF00B0801271C469A469B460393DB
S315878035E00493069305930B930A93002E00F0278204
S315878035F03369063B022B0DD80AF08EFC0AF0EAFC6B
S31587803600002840F01A82039B0BB1059002E0824620
S31587803610039605903569A84506D12FB1F76817F1C6
S31587803620FF3718BF012701E2022D02D0042D0BD167
S3158780363004E0049B002B40F0F58103E0049B002B7C
S3158780364000F0F0810693C4E0032D04D1069B002BFE
S3158780365040F0BF80F3E1062D40F0A5803368002BCC
S3158780366000F0E281BBF1000F7CD1B3685B681F688D
S31587803670002F00F0D98173681B681B6818460A93E8
S315878036801AF00AFC0B900420FFF72AFB0023089781
S3158780369007938346089B18680C93002856D0002189
S315878036A0FFF74AFE074609903B78002B42D0202BAE
S315878036B001D10137F8E7202138461AF0E1FB034626
S315878036C010B1A0EB070A04E038461AF0E5FB3B18F1
S315878036D082460D935846079B03F102084FEA88086E
S315878036E04146A8F10808FFF713FB0B9B8346981C76
S315878036F05044FFF7F5FA0A994BF808001AF06CFBE5
S3158780370048495BF808001AF07BFB524639465BF8D6
S3158780371008001AF084FB079B5BF808200133079320
S315878037200B9B1A444FF0000392448AF801300D9B15
S315878037301F46B9E7089B099A043308930C9B1B6835
S315878037409A42A7D010460AF0A7FDA3E7079B4FF0BA
S31587803750010ACDF82CB04BF8230073681B681A686A
S3158780376018600A927368DBF800801B681868B8F15E
S31587803770000F0DD10AF090FD0B980AF08DFD7368C6
S315878037800A9A0B250127C2461B68C3461A604DE1F4
S3158780379008B10AF081FD73680BF1040B5BF8042C82
S315878037A01B681A6015E00C2D00F03E81092D04D127
S315878037B0BAF1000F00F038810BE00A2D09D1059BFD
S315878037C0BAF1000F18BF01230593039B08BF002317
S315878037D003933368002B00F02781012B40F0038108
S315878037E0D6F80480D8F80C0010B1FFF7CFFEF1E049
S315878037F0D8F80070002F00F0F680044657F824200A
S3158780380010460792FFF7F8FB079A08B10134F5E768
S31587803810054B1B680793002C46D03AB1044643E094
S315878038204C228387CE808287802383871746D8F8E2
S315878038300030D85900B31AF053FB3D2104461AF05D
S315878038401FFB10B14FF00003037020460AF024FD5A
S31587803850D8F800300021D859FFF76EFD002104463D
S31587803860FFF7E4FCD8F80030DB599C4202D020462B
S315878038700AF012FD0437DAE70446B6E000211046DF
S31587803880FFF75AFD00210746FFF7D0FCD8F80030AE
S315878038901B59BB4207D0D8F810303846013BC8F849
S315878038A010300AF0F9FC0434D8F800301F191A59F9
S315878038B010460892FFF7A0FB089A0028DED1D8F831
S315878038C0101000296ED007905F48D8F80480FFF7DC
S315878038D081FC38B10078079B302805D0031C18BF38
S315878038E0012301E0089000E00893043C079744444D
S315878038F04FF00008474602230C93079B1A680D935F
S31587803900002A3CD008991046FFF716FD09901AF0D1
S31587803910C3FA54F8041F0C9B03EB410101443846D4
S31587803920FFF7F6F90746B8F1000F03D047491AF033
S3158780393067FA01E080F8008023681BB144493846DE
S315878039401AF05EFA099938461AF05AFA23681BB133
S315878039503F4938461AF054FA38461AF09DFA099A3A
S31587803960C31C0C93079B043307930D9B1B689A4252
S3158780397002D010460AF090FC08F10108BDE7384668
S3158780398007921AF089FA079A0A2305213B54384405
S3158780399042703846FFF7B0FD38460AF07DFC2D4BDE
S315878039A01C6818E03B2110461AF06AFA30B1D8F8BD
S315878039B00030294819590AF051FA14E0009007987F
S315878039C0264B0030D8F80020D8F8081018BF012079
S315878039D00CF064FD0446631C07DA1E4B6FF001000A
S315878039E0041B1C602CE04FF0FF341A4A231C18BF37
S315878039F00123136025F00202012A0AD0072D04D1FC
S31587803A00B4FA84FA4FEA5A1A04E0082D08BF9A4610
S31587803A1000E00494F3680CB9032B00E0022B18BFEF
S31587803A200B2502E0049B06930B250127059B0BB983
S31587803A30B66800E0039EA846D7E5012000E02046C9
S31587803A400EB0BDE8F08D00BF8F57828782F282875E
S31587803A506A5D82877C2283879C5782874C2283876D
S31587803A602DE9F04D90B004461422009104A80021D8
S31587803A7001261AF056FA009B002513F0080F14BF0B
S31587803A804FF0FF330A230193009B0B9509950F937C
S31587803A90FFF732F90C950E950D95A54F0A900B90E9
S31587803AA009A8FFF741F9A34809F08CFF08B1386068
S31587803AB001E0A14B3B604FF4807200219F481AF04A
S31587803AC030FA032103A804238DF80D508DF80C3026
S31587803AD0FFF7AAF803219A48FFF7A6F801219948A4
S31587803AE0FFF7A2F802213868FFF79EF8009B03F05C
S31587803AF00603022B03D000219348FFF795F801230D
S31587803B00A360E36820469847B0F1FF3F804600F080
S31587803B103F818A4A12F808B06268002A00F03A81A3
S31587803B20B8F10A0F04D0226920469047824601E081
S31587803B304FF0000ABBF1000F05D00BF1FF32012A47
S31587803B4015D8079A12B1079A414659E0BBF1020FF9
S31587803B500DD109A904A8FFF71DF9002840F01A811D
S31587803B60B8F10A0F03D1012109A8FFF7FEF8019B57
S31587803B70984505D1079F1FB90C9A002A00F00E81B8
S31587803B80BBF1020FBDD0B8F1260F00F0C48012DCDE
S31587803B90B8F1220F00F0B18006DCB8F1040F40F04F
S31587803BA0F48001230893EAE0B8F1230F17D0B8F1A0
S31587803BB0240F38D0E9E0B8F13B0F00F0A68006DC09
S31587803BC0B8F1270F40F0E180012308938EE0B8F1A2
S31587803BD05C0F19D0B8F17C0F00F0BA80D5E0059BD1
S31587803BE063B9079B53B9236920469847471C88D072
S31587803BF00A2886D0E36820469847F4E7079A2321E0
S31587803C0004A8FFF7CBFA7CE7BAF1FF3F00F0BD80C7
S31587803C10079A414604A8FFF7C1FAE3682046984782
S31587803C20079A0146ECE7226920469047474BC2B2FE
S31587803C3007469A5C910714D0032104A8FFF78CFA6C
S31587803C40099A1369013313612369204698473F4A46
S31587803C50C3B20746D35C5A0740F0DA805F2834D1EF
S31587803C60D6E03F280DD07B2834D1032104A8FFF7DF
S31587803C7073FA099A2046136901331361E368984773
S31587803C801CE0099904A80A6901320A610321FFF7B2
S31587803C9063FA414604A8FFF75FFA394604A8FFF717
S31587803CA05BFA032104A8FFF757FAE368204698470B
S31587803CB027E77D2809D004A8FFF74EFAE3682046D0
S31587803CC09847431C0146F4D15FE0032104A8FFF798
S31587803CD043FA16E7079A242192E727283FF411AFFC
S31587803CE06368002B56D004A8FFF736FAE368204628
S31587803CF09847471C0146F0D147E001230893079BE5
S31587803D00B3FA83F35B090793FBE609A904A8FFF750
S31587803D1041F8012127E009A904A8FFF73BF8BAF102
S31587803D20260F32D1E3682046984702211BE000BFE1
S31587803D3078228387D4578287D857828780228387BA
S31587803D40DC578287E1578287E657828761408287F9
S31587803D5009A904A8FFF71EF8BAF17C0F15D1E36885
S31587803D6020469847032109A8FEF7FFFFC9E604295D
S31587803D703FF4C7AE63686BB104A8FFF7EDF9E368D4
S31587803D802046984701460130F1D1FEF757FF01E07B
S31587803D90074603E03C4B01271D600AE00D9B1BB15C
S31587803DA0FEF74CFF384B1D60DDF834A0BAF1000F63
S31587803DB036D00D9B2BB10E980AF06EFA04A8FEF7C3
S31587803DC01FFF636813B931480AF048F801232560D5
S31587803DD0636000210A9808950795FEF735FF04A842
S31587803DE0FEF70EFF04980AF057FA04950695013771
S31587803DF044D0009BDB0741D42269254B9A427FF4C6
S31587803E0043AE2046FFF7E2F900287FF43DAE35E0E2
S31587803E10E36820469847394604A8FFF79DF913E754
S31587803E2009A904A8FEF7B6FF012109A8FEF79DFF19
S31587803E30DDF828B05846FFF7A9FB5146064658460F
S31587803E40FEF702FFB11C12D104A8FEF7D9FE0498AB
S31587803E500AF022FA22690F4BCDF810A09A42CDF844
S31587803E6018A00AD10C48564609F0F8FFBFE7721C9E
S31587803E70B5D1054BC3F800A0B1E75646301C18BFAD
S31587803E80012010B0BDE8F08D4C2283871458828735
S31587803E90CD318087212C8087EB5782877FB506A88F
S31587803EA0074B02210593074B0493012302930393C0
S31587803EB0002340F8143DFFF7D3FD07B05DF804FB78
S31587803EC0212C80872530808738B5084D2C685CB94A
S31587803ED014200AF095FA064B0360064B2860046126
S31587803EE0436001238460C360002038BD8827838729
S31587803EF0215882872E58828738B51B4809F062FDFC
S31587803F0028B10A2200211AF018FD054600E003250C
S31587803F10164B1C6814F480140CD103F53B23144884
S31587803F2003F5A07325461C6009F098FF114809F0B0
S31587803F300BFE02E0104809F091FF104809F042FD18
S31587803F400A4B1B680446DB0207D40D4809F03AFD05
S31587803F50044601460B4809F081FF4B4620469B6DF8
S31587803F60094B1D6038BD00BFF158828700900C02CF
S31587803F70FB58828717598287425982874F5982870A
S31587803F8057598287635982878C2783871E4B2DE96A
S31587803F90F04106461C68631C34D098B3002C03DB3B
S31587803FA021461A4809F05AFF194F0025002C1DDD36
S31587803FB0DDB92846FDF736FC804609F08FFF20B1AC
S31587803FC009F072FF012500240AE042F210701AF088
S31587803FD063F84046FDF726FCB0F57A7FEDD3013C42
S31587803FE02146384609F03AFFE0E701250A2009F09D
S31587803FF011FF3DB92A4630464FF0FF31BDE8F04183
S315878040000BF0C5BBBDE8F0818C278387785982877B
S315878040109B59828703490020034B5B1AC9F8343042
S31587804020704700BF00008087CCF28787D9F82C300D
S31587804030002023F47F6323F00F03C9F82C30704761
S315878040404FF48042C9F8F420D9F8F4100020D9F8C3
S315878040502C20521AC9F82C20D9F82C20120C12043D
S31587804060C9F82C20D9F82C20C9F8F0207047D9F8C0
S3158780407034100020D9F82C20521AC9F82C20D9F868
S315878040802C2022F47F6222F00F02C9F82C20D9F8DF
S315878040902C20C9F83C207047D9F83C30002003F1A2
S315878040A07F43C9F83C307047D9F83C200020F83ADE
S315878040B0C9F83C20D9F83C20C9F844207047D9F8FC
S315878040C05820BAB1D9F85820526812BA02F5805268
S315878040D01F3222F01F02C9F86020D9F86010D9F8FC
S315878040E03C20521AC9F83C20D9F83C20D9F8601070
S315878040F0C9F85C200020704700207047D9F8BC201B
S315878041000020D9F8BC2002F58062C9F8C020C9F89A
S31587804110C40070470020704708B54946D9F82C30C7
S31587804120F82203F1F143C9F84030D9F8440019F0F1
S315878041301BFF002008BDD9F85C2008B55AB1D9F88D
S315878041405C00D9F85810D9F8602019F00DFFD9F896
S315878041505C20C9F85820002008BD000008B50248B1
S3158780416009F06AFE002008BDA359828708B50548ED
S3158780417009F062FE0EF0C6FA034809F05DFE00205C
S3158780418008BD00BFAB598287A7D2828710B54FF407
S31587804190E1320A2103484C4609F04DFCA060002095
S315878041A010BD00BFB359828701200DF08FBD08B53A
S315878041B09A20FEF735FC002008BDD9F8001008B58F
S315878041C069B9D9F83C20503AC9F83C20D9F83C20BF
S315878041D0C9F800205022D9F8000019F0A2FE0020E5
S315878041E008BD002070470020704700207047002058
S315878041F07047704770477047D9F8003010B50024EC
S31587804200D86C2146054A19F027FC2046FFF7F3FF2D
S315878042100A2009F0FFFD204610BD00BF8D85828765
S31587804220D9F800204FF0004110B59164D9F8004045
S315878042300BF018FAE06410BD08B5FFF7F1FF002090
S3158780424008BDD9F82820002AB4BFD9F828000020CD
S31587804250704710B54FF00042C9F828200BF002FA54
S31587804260D9F828304C461844C9F82800D9F834003C
S31587804270FFF7E7FFA0620020D9F82820C9F82C200D
S3158780428010BDD9F83C20103AC9F83C20D9F83C2093
S3158780429022F00F02C9F83C20FDF7C4BD08B500227D
S315878042A0C9F80400C9F81C20034818F065FD08B1D1
S315878042B019F060FD08BD00BF6CF8828700207047C3
S315878042C0034A0020034B9B1A034A1360704700BF3B
S315878042D000008087E89883879027838700207047A8
S315878042E008B5FEF79EFBFCE708B5044809F0A4FDF0
S315878042F0D9F800001BF0AAFA002008BDBC5982872E
S31587804300D9F8001008B5303102481BF04BF90020E8
S3158780431008BD00BF1575828708B5FDF799FD002012
S3158780432008BD08B5FEF78EFB002008BD10B509F0DD
S31587804330DBFC1021034C0448226809F07CFB206053
S31587804340002010BD34158387C459828708B50448F1
S3158780435009F072FDD9F8000010F042F8002008BDF8
S31587804360CD59828708B511F0E5FF002008BDD9F8B9
S3158780437048200020C9F84C20C9F848000DF0A6BC13
S31587804380D9F82C004FF0807108B500F17F4009F08D
S315878043902FFF002008BD08B5FCF780FA002008BDEE
S315878043A008B59B20D9F8043043F4007343F00103A2
S315878043B0C9F80430FEF734FB002008BD002070471B
S315878043C000207047704708B5FFF7FCFF002008BDBF
S315878043D008B5024818F0D0FC19F0CCFC08F982871A
S315878043E0FEF7F2B90346084611461847012A70B583
S315878043F0164618DD1C46102254F8040F00211AF041
S3158780440043FA054601460A4809F028FD2246711E69
S315878044102846FFF7E7FF041C0146064818BF012494
S3158780442009F01CFD01E04FF0FF34204670BD00BFC8
S31587804430E55982870D5A82872DE9F04502F1FF3843
S31587804440B8F1000F87B006460F4615461C4603F11E
S31587804450040A2CDD1022586805A91AF015FA059BDF
S315878044601A7822B33A2A22D0232A20D009221849B9
S3158780447060680BF075FDAA1E04F10803A0B1C168B8
S315878044801448012908BF072111F0010F07D1D0F8F9
S315878044908C40A14203DC104809F0E0FC04E000244C
S315878044A00190029400910BE04FF0FF300CE00123DE
S315878044B00293084B4246019340F20F73009353460B
S315878044C03946304600F0A0F907B0BDE8F08500BFD1
S315878044D0F8FC828794278387CE5A828710B50C46C5
S315878044E0034809F06FFA2146BDE810400BF048B9BA
S315878044F04F59828738B501460446184809F0AEFC7D
S3158780450020460AF06DFD0128054621D1144809F019
S3158780451093FC2268134B9A4201D0134804E02046C5
S315878045200AF0F6FB18B9114809F086FC14E0204694
S315878045300AF0D0FC0E4809F07FFC20460AF0FDFB86
S3158780454008B90C48F0E70C48002509F075FC03E0AC
S315878045500A48012509F070FC284638BDF85A8287B3
S31587804560195B828727051956305B8287455B8287E9
S315878045705D5B8287785B8287895B82878D5B8287B3
S31587804580012AF8B516461F4605DC0C4B1868BDE828
S31587804590F840FFF7AFBF002501241022002157F886
S315878045A0240001341AF070F9FFF7A4FF002818BF9A
S315878045B00125A642F1D12846F8BD00BF34158387E9
S315878045C073B505460D480E4609F0FCF908B90020F3
S315878045D012E00B4919F038FC04460028F7D1094BBD
S315878045E0019009481968009609F038FC6B460122C4
S315878045F021462846FFF720FF02B070BDA45B8287DD
S315878046006654828734158387AE5B82872DE9F0452A
S31587804610551E214C87B01E1D98462A460123029334
S3158780462082468DE8180033460F4600F0EDF81DB9AF
S315878046301A4B1B68236606E010220021D8F80400EF
S315878046401AF022F9206605AA04A9206EFDF756FB83
S31587804650F0B9049B059A216ED21A114818F078FC16
S3158780466032462946384600F01DF888B900F0C4F8E6
S31587804670052301942A4684F85E30394601235046BD
S3158780468002934FF4E0630093334600F0BDF800E071
S31587804690012007B0BDE8F085942783873415838703
S315878046A024288387F0B585B0164C0D46164607466F
S315878046B004F1680331460193224604F16403284650
S315878046C0009302230AF0A0FC08B10F480FE004F19B
S315878046D0700329460293324604F16C030094019352
S315878046E0384602230AF0A0FE054620B1074809F01E
S315878046F0A3FB012003E0E06E01F076FB284605B038
S31587804700F0BD00BF94278387BA5D8287DF5D828706
S315878047102DE9F0410546DDF82880D8B216460C4645
S31587804720099FC8F800100AF0C1FB024655B9294B84
S3158780473029492A48B44218BF194609F08FFBB442E3
S3158780474007D13CE00146264809F088FB012D0AD02F
S3158780475012E0089ABA4217D84FF480330799069899
S315878047600AF06CFB2BE008AB079A3946069818F057
S31587804770C9FA064618B308E029461A4809F06EFB37
S315878047806FF00200BDE8F0810126E8B2089C0AF046
S3158780479097FBA742014603D8134809F05FFB03E0DE
S315878047A03246124809F05AFB114809F057FB6FF0D9
S315878047B00500FEF735F94FF0FF30BDE8F081089B9D
S315878047C00C481C44C8F8004009F036FB0020BDE839
S315878047D0F08100BF075E8287035E82870F5E82874E
S315878047E01D5E8287365E8287595E8287895E8287EB
S315878047F0A25E8287895B828710B5FDF72AFB04468E
S3158780480006F040FE204610BD2DE9F04D8EB09846C5
S315878048101746179D169E0991D5F88C30F107079014
S3158780482043EA0603C5F88C3028D5BC4C4FF498727A
S315878048300021204619F075FBB94809F05BF9C4F861
S31587804840880004F1900018F032FB0AF0B9FA8246A4
S315878048500AF0C6FA5146024604F1900018F032FBF8
S3158780486004F19000FDF79CF904F1900018F0E5FBC0
S31587804870A020FEF7D5F80123C4F88C30B20740F123
S31587804880F180002087420DAA0CA90C904FF0000B6F
S315878048900D90C8BFD8F800000AF098FB044601201F
S315878048A0FEF7BEF820460AF0ABFB9C4CC4F854B0A2
S315878048B0C4F850B082460AF093FB012847D1514607
S315878048C0984809F0CBFADAF80020974B9A4205D0B8
S315878048D0964809F0B1FA4FF0FF3033E00220D4F8DA
S315878048E088B0FEF79DF850460AF012FA28B99048A4
S315878048F009F0A2FA6FF0010024E00320FEF790F812
S3158780490050460AF0E7FABBF1000F0FD0894809F0C5
S3158780491093FA50460AF011FA28B9874809F09EFA21
S315878049206FF002000EE0854809F086FA0420FEF7CC
S3158780493077F89AF81D10022961D0814809F08EFA96
S315878049406FF00300FEF76CF84FF0000A09E0079BCB
S31587804950DA467C48196809F081FA6FF06F00FEF7AE
S315878049605FF8636D0BB9784832E050460AF038FBBA
S3158780497001281DD19AF81E300AF1400284F85D30ED
S315878049809AF81F3084F85C309AF81C3084F85E3049
S31587804990DAF80C301BBA1344E364DAF810301BBAA2
S315878049A0A3659AF81D30032B84F85F3002D103E024
S315878049B066480DE0182B0ED1654A0DAB0321A2F10F
S315878049C060000AF03FFC00280DDA02300BD0614880
S315878049D009F032FA9CE0636C1BB1A3691BBA236624
S315878049E001E05D48F4E794F85D300E2B04D1236DA2
S315878049F0226EA36513442366C4F848A032E0052057
S31587804A00FEF70EF89AF81E30022B1ED10AF1400364
S31587804A102365DAF80C301BBA636507E0042B17D158
S31587804A204E4B002150461A1F0AF0A1F9DFF838B19C
S31587804A3040225146584619F0D4FA062001234BF86E
S31587804A4004AC6364FDF7ECFF8BE7E7D8012B00E0C6
S31587804A500E2BDBD0079B4248196809F0FFF96FF068
S31587804A6004006FE772071CD52C4A92F85D100E29D1
S31587804A7000F2138144F21403CB4003F0010383F0E1
S31587804A800101002B00F0098192F85E30052B41D118
S31587804A90424639460998FFF705FE002840F0268169
S31587804AA0074616F0080A61D1F00600F1B280B30690
S31587804AB00FD505F19004E96E20460AF001FC05F1D1
S31587804AC0700205F16C0120460AF028FC002840F028
S31587804AD00D8195F85E0000F0B7F90446002840F00E
S31587804AE0AF8016F4F86F00F0AB80BAF1000F01D073
S31587804AF0FDF7AEF995F85E000AF0C4F995F85E2061
S31587804B000146184809F0AAF96FF00700FDF788FF74
S31587804B100120EBE00E2B40F0C280B9E7942783878C
S31587804B20BF5E8287C65E828727051956335B8287F3
S31587804B30485B82875D5B82877B5B8287895B82872F
S31587804B40F85E8287385F82875B5F82877B5F8287B3
S31587804B50F42783879E5F8287C85F8287E8278387D4
S31587804B60175F82878560828798278387FFF744FECA
S31587804B70AB6CD5F858B00DAA0A93EB6C59460B9354
S31587804B802B6D069395F85C30089395F85D30049283
S31587804B904FF0807203926A6DCDF800B00292069AC2
S31587804BA0019282460898FFF7B3FD044630B16FF0CD
S31587804BB00500FDF735FFA31C54D175E70D99584637
S31587804BC0A1EB0B018900FBF7E7FC0720FDF728FFA0
S31587804BD0089B0D9A13B9069B5B4562D00B9B5B45F9
S31587804BE05FD90A9B93425CD26B6C43B195F822302E
S31587804BF0042B7FF459AF3F4809F01EF954E73E48A6
S31587804C004FF0FF3409F018F96FF07300FDF708FF4E
S31587804C1028E0696E05F17803AA6E05F19000009306
S31587804C2005F17403521A0AF0A9FA00285ED1696FD2
S31587804C30324808F0A5FDA96F314808F0A1FD36E70F
S31587804C40710635D432063BD4F30542D416F4806098
S31587804C500CD000942B464FF480624146384600F04C
S31587804C60D6F80446BAF1000F06D003E0BAF1000FF2
S31587804C703CD00446FDF7ECF8E01C04D16FF00600C3
S31587804C80FDF7CEFE07E0611C05D143463A46099972
S31587804C900798FDF7BFF9204628E0002701E70F46EA
S31587804CA0FFE6A96D05F19000521A18F051F9FBE6D7
S31587804CB02B46424639464020A047834690B9C1E76E
S31587804CC02B46424639468020A04783460028BBD05C
S31587804CD008E02B46424639464FF48070A047834684
S31587804CE00028B3D0074809F0A7F858460EB0BDE824
S31587804CF0F08D00BFEC5F8287266082876D608287B2
S31587804D007A608287B360828770B50D460A48164671
S31587804D101C4608F057FE40B1084919F095F820B926
S31587804D20616D074808F02CFD03E0236E31462846DF
S31587804D309847002070BD00BFA45B8287FA5582871B
S31587804D40CD6082877FB50446036F00F16C06C16E9E
S31587804D5000F19005039371B328460AF0B1FA31467C
S31587804D6003AA28460AF0DAFA0146002834D11B4A74
S31587804D70E06E17F049FE031E01DA023313D1184815
S31587804D8008F020FE0646B0B1E56E19F085F8012356
S31587804D90134A01931349184433460090284601F0F5
S31587804DA0DFFC002807DA17F0CFFE0F4902460F4847
S31587804DB009F054F810E02046FCF7BCFF0F20FDF77A
S31587804DC02FFEE26E216E0A4809F048F82046FCF7E6
S31587804DD0C9FF084809F030F804B070BDD76082876C
S31587804DE0494F8287D6608287CD3F8287DE6082877A
S31587804DF0F16082872D618287B0F5806F08B504D18F
S31587804E001846FFF79FFF012008BD002008BDF8B52B
S31587804E1006460F4614461D46FCF724FB2B4631462D
S31587804E203A462046069EB04795F85D30012B09D0D5
S31587804E30B4F5007F06D06FF00800FDF7F1FD4FF0DF
S31587804E40FF30F8BD0020F8BD014B53F8200070472E
S31587804E50A420828737B5074D074C8DE80C000B4613
S31587804E60641B064902462846A41061430BF0D6F890
S31587804E7003B030BDF817838748208387B76DDBB645
S31587804E8008B50649064808F0E9FF064808F0D4FFC2
S31587804E90054808F0D1FF002008BD00BFCBF6828782
S31587804EA0DC618287E1618287306282872DE9F04182
S31587804EB08846054638B32C21284618F0E1FF0646F2
S31587804EC090B9284618F0E8FF0446002841D001307B
S31587804ED009F096FA074618B96FF00B00BDE8F0819E
S31587804EE0294618F079FF11E0441B37D0601C09F0FA
S31587804EF087FA07460028EFD02246294618F074FF9E
S31587804F0000233B5502E00120BDE8F0813A213846EF
S31587804F1018F0B6FF044628B10023601C237018F06A
S31587804F2041FF0446384618F03DFF054618F0B4FF22
S31587804F3030B121462846C047044608B1384608E03E
S31587804F403846751C09F0A8F9002EB4D13046BDE8DD
S31587804F50F08109F0A1F92046BDE8F0812046751CCD
S31587804F6009F09AF9A7E700002DE9F84507460D4627
S31587804F701646002A3FD0002841D00B7843B10024BB
S31587804F80294619F056F8034618B101301C46F7E7CB
S31587804F903C466CB3284618F07FFF234613F8012DCD
S31587804FA0202AFBD00138204410F8013F202BFBD0E4
S31587804FB0BC4201D02C2A04D13A2B23D02C2B21D04A
S31587804FC003B32B78002BE3D038464FF0000A294667
S31587804FD019F02FF8804648B1284618F05DFF40447F
S31587804FE0844203D308F10100C246F0E75446D0E7EE
S31587804FF00220BDE8F8854FF0FF30BDE8F8850120AF
S31587805000BDE8F885284618F047FF204410F8013B0D
S31587805010202BFBD03A2B17D104462378621C202B72
S3158780502001D11446F9E70B49204618F06AFF20B963
S31587805030204618F031FF054600E0051B2A462146A3
S31587805040304618F091FF00E0002500207055BDE8B6
S31587805050F88500BF8E49828700238360184670470C
S315878050602DE9F04180460B4E0B4CA41BE41060B1B2
S31587805070002506E056F83510404618F0E5FE28B13B
S315878050800135A54206EBC507F4DB00273846BDE820
S31587805090F08100BFD82083870821838738B50D465E
S315878050A0074C0849084818F0B3FC21460748FFF79C
S315878050B0FDFE21462846FFF7F9FE002038BD00BF52
S315878050C0D1508087595080871411838784628287DD
S315878050D010B58AB0114A002307930C460393009331
S315878050E00AAB029205AA0690019213E90F0018F07F
S315878050F0E1F8059B73B10CB9002209E0204618F0C8
S31587805100CBFE0028F8D02046FFF7AAFF10B1426869
S31587805110059B9A6000200AB010BD00BF1411838753
S315878051202DE9F0410024DFF86C80C0B0066805461B
S31587805130FC22214601A8009418F0F3FED8F80030A7
S31587805140114F2BB1114808F03DFCC8F800403860F4
S31587805150386830B96A4631460D48FFF705FF80B90A
S3158780516005E06A463146FFF7FFFE0028F2D168469A
S3158780517018F092FE28B16846FFF772FF08B1436838
S31587805180AB6040B0BDE8F081C42883870963828796
S3158780519084628287FCFF828730B538B10C78302C61
S315878051A004D14C7804F0DF04582C12D00A4C0B4477
S315878051B0994205D00D78655D20B115F0440F04D1ED
S315878051C02AB930BD15F0040FF9E70131F0E7116090
S315878051D030BD0231EAE700BF614082870023C36022
S315878051E01846704738B50D46074C0849084818F061
S315878051F00FFC21460748FFF759FE21462846FFF7C9
S3158780520055FE002038BD00BF81528087DD5180875B
S31587805210141183871463828770B5054618F03CFE20
S3158780522068B1074E2978304618F02AFE044608B1B9
S31587805230801B70BD2978034808F010FE204670BD14
S31587805240A64982872063828770B5054618F024FE33
S3158780525001280ED9084E6978304618F011FE044623
S3158780526008B1801B70BD6978044808F0F7FD204631
S3158780527070BD002070BD00BFA14982875463828735
S3158780528070B58AB0154A002307930C46039300931B
S315878052900AAB029205AA0690019213E90F0018F0CD
S315878052A009F8059BBBB11CB9059B0022DA6012E021
S315878052B0204618F0F1FD0028F6D02046059EFFF798
S315878052C0ABFF00F007052046FFF7BEFF044B53F878
S315878052D020301D43F56000200AB070BD1411838786
S315878052E03C2582871D4B2DE9F34100241B78054693
S315878052F0DFF87C8006688DF80430D8F800308DF822
S3158780530005408DF80640164F2BB1164808F05AFB94
S31587805310C8F800403860386830B901AA31461248E3
S31587805320FFF722FEB8B905E001AA3146FFF71CFED2
S315878053300028F2D101A818F0AFFD60B101A8FFF768
S315878053406BFF00F0070401A8FFF77EFF074B53F832
S3158780535020301C43EC6002B0BDE8F0810A3E82872C
S31587805360C828838791638287146382873C2582874F
S31587805370000083872DE9FF4D06460C460193174625
S3158780538012B1D0F804B000E09346744B3568002C90
S3158780539008BF1C46012F00F0A380F36803F007033C
S315878053A00093013B052B00F29B80DFE803F0030E19
S315878053B02B44608A4FF0FF3303AA21460020FFF7EC
S315878053C0EBFE039B93F800802DE04FF0FF3303AA13
S315878053D021460120FFF7E0FE039B1A78002A70D1C9
S315878053E0A21C93427CD12378302B79D194F8018083
S315878053F008F0DF08B8F1580F4FF0FF3818BF4FF025
S31587805400000861E0237803F0DF02592A09D0542AFD
S3158780541007D0A3F13002012A03D903F0D703462B9D
S315878054204FD194F8018018F1000818BF4FF0010812
S31587805430C8F1000848E0A2464FF00008032303AA74
S3158780544051460020FFF7A8FE039B534539D0B8F114
S31587805450030F1A7802D02E2A01D032E08ABB08F150
S31587805460010803F1010AB8F1040FE7D138E0A046B5
S315878054704FF0000A022303AA41460120FFF78CFEDC
S31587805480039B43451DD008F10202934209D198F8C0
S315878054900020302A05D198F8012002F0DF02582AA9
S315878054A00FD0BAF1050F1A7802D03A2A01D008E0D0
S315878054B03AB90AF1010A03F10108BAF1060FD9D17F
S315878054C00EE04FF0FF3802E0B8F1FF3F08D1009A2F
S315878054D02946234B23489B5C224608F0BFFC38E04D
S315878054E0019B13F0020802D04FF0000831E0012FAC
S315878054F003D025D3022F09D02BE0F3681807F3D57D
S315878055002946194808F0AAFCB84622E0F368990626
